{
  "_format": "hh-sol-artifact-1",
  "contractName": "Superstream",
  "sourceName": "contracts/Superstream.sol",
  "abi": [
    {
      "inputs": [],
      "stateMutability": "nonpayable",
      "type": "constructor"
    },
    {
      "anonymous": false,
      "inputs": [
        {
          "indexed": true,
          "internalType": "string",
          "name": "_from",
          "type": "string"
        },
        {
          "indexed": true,
          "internalType": "string",
          "name": "_to",
          "type": "string"
        }
      ],
      "name": "Followed",
      "type": "event"
    },
    {
      "anonymous": false,
      "inputs": [
        {
          "indexed": false,
          "internalType": "uint256",
          "name": "senderId",
          "type": "uint256"
        },
        {
          "indexed": true,
          "internalType": "uint256",
          "name": "streamId",
          "type": "uint256"
        }
      ],
      "name": "Liked",
      "type": "event"
    },
    {
      "anonymous": false,
      "inputs": [
        {
          "components": [
            {
              "internalType": "uint256",
              "name": "id",
              "type": "uint256"
            },
            {
              "internalType": "string",
              "name": "username",
              "type": "string"
            },
            {
              "internalType": "string",
              "name": "bio",
              "type": "string"
            },
            {
              "internalType": "string",
              "name": "pfp",
              "type": "string"
            },
            {
              "internalType": "string",
              "name": "streamId",
              "type": "string"
            },
            {
              "internalType": "string",
              "name": "defaultTitle",
              "type": "string"
            },
            {
              "internalType": "string",
              "name": "defaultThumbnail",
              "type": "string"
            },
            {
              "internalType": "string[]",
              "name": "followers",
              "type": "string[]"
            },
            {
              "internalType": "string[]",
              "name": "follows",
              "type": "string[]"
            },
            {
              "internalType": "address",
              "name": "owner",
              "type": "address"
            }
          ],
          "indexed": false,
          "internalType": "struct Superstream.Profile",
          "name": "_profile",
          "type": "tuple"
        }
      ],
      "name": "ProfileCreated",
      "type": "event"
    },
    {
      "anonymous": false,
      "inputs": [
        {
          "indexed": false,
          "internalType": "uint256",
          "name": "streamNftId",
          "type": "uint256"
        },
        {
          "indexed": true,
          "internalType": "address",
          "name": "creator",
          "type": "address"
        }
      ],
      "name": "StreamPublished",
      "type": "event"
    },
    {
      "anonymous": false,
      "inputs": [
        {
          "indexed": true,
          "internalType": "address",
          "name": "sender",
          "type": "address"
        },
        {
          "indexed": true,
          "internalType": "address",
          "name": "receiver",
          "type": "address"
        },
        {
          "indexed": false,
          "internalType": "uint256",
          "name": "amount",
          "type": "uint256"
        }
      ],
      "name": "Tipped",
      "type": "event"
    },
    {
      "inputs": [
        {
          "internalType": "string",
          "name": "_username",
          "type": "string"
        },
        {
          "internalType": "string",
          "name": "_bio",
          "type": "string"
        },
        {
          "internalType": "string",
          "name": "_pfp",
          "type": "string"
        },
        {
          "internalType": "string",
          "name": "_streamId",
          "type": "string"
        },
        {
          "internalType": "string",
          "name": "_streamKey",
          "type": "string"
        }
      ],
      "name": "addProfile",
      "outputs": [],
      "stateMutability": "nonpayable",
      "type": "function"
    },
    {
      "inputs": [
        {
          "internalType": "uint256",
          "name": "_streamNftId",
          "type": "uint256"
        },
        {
          "internalType": "string",
          "name": "_sessionId",
          "type": "string"
        }
      ],
      "name": "addStream",
      "outputs": [],
      "stateMutability": "nonpayable",
      "type": "function"
    },
    {
      "inputs": [
        {
          "internalType": "string",
          "name": "_to",
          "type": "string"
        }
      ],
      "name": "follow",
      "outputs": [],
      "stateMutability": "nonpayable",
      "type": "function"
    },
    {
      "inputs": [],
      "name": "getProfileByAddress",
      "outputs": [
        {
          "components": [
            {
              "internalType": "uint256",
              "name": "id",
              "type": "uint256"
            },
            {
              "internalType": "string",
              "name": "username",
              "type": "string"
            },
            {
              "internalType": "string",
              "name": "bio",
              "type": "string"
            },
            {
              "internalType": "string",
              "name": "pfp",
              "type": "string"
            },
            {
              "internalType": "string",
              "name": "streamId",
              "type": "string"
            },
            {
              "internalType": "string",
              "name": "defaultTitle",
              "type": "string"
            },
            {
              "internalType": "string",
              "name": "defaultThumbnail",
              "type": "string"
            },
            {
              "internalType": "string[]",
              "name": "followers",
              "type": "string[]"
            },
            {
              "internalType": "string[]",
              "name": "follows",
              "type": "string[]"
            },
            {
              "internalType": "address",
              "name": "owner",
              "type": "address"
            }
          ],
          "internalType": "struct Superstream.Profile",
          "name": "",
          "type": "tuple"
        }
      ],
      "stateMutability": "view",
      "type": "function"
    },
    {
      "inputs": [
        {
          "internalType": "string",
          "name": "_username",
          "type": "string"
        }
      ],
      "name": "getProfileByUsername",
      "outputs": [
        {
          "components": [
            {
              "internalType": "uint256",
              "name": "id",
              "type": "uint256"
            },
            {
              "internalType": "string",
              "name": "username",
              "type": "string"
            },
            {
              "internalType": "string",
              "name": "bio",
              "type": "string"
            },
            {
              "internalType": "string",
              "name": "pfp",
              "type": "string"
            },
            {
              "internalType": "string",
              "name": "streamId",
              "type": "string"
            },
            {
              "internalType": "string",
              "name": "defaultTitle",
              "type": "string"
            },
            {
              "internalType": "string",
              "name": "defaultThumbnail",
              "type": "string"
            },
            {
              "internalType": "string[]",
              "name": "followers",
              "type": "string[]"
            },
            {
              "internalType": "string[]",
              "name": "follows",
              "type": "string[]"
            },
            {
              "internalType": "address",
              "name": "owner",
              "type": "address"
            }
          ],
          "internalType": "struct Superstream.Profile",
          "name": "",
          "type": "tuple"
        }
      ],
      "stateMutability": "view",
      "type": "function"
    },
    {
      "inputs": [
        {
          "internalType": "uint256",
          "name": "_id",
          "type": "uint256"
        }
      ],
      "name": "getSessionData",
      "outputs": [
        {
          "components": [
            {
              "internalType": "string",
              "name": "sessionId",
              "type": "string"
            },
            {
              "internalType": "uint256[]",
              "name": "likes",
              "type": "uint256[]"
            },
            {
              "internalType": "uint256",
              "name": "views",
              "type": "uint256"
            }
          ],
          "internalType": "struct Superstream.Stream",
          "name": "",
          "type": "tuple"
        }
      ],
      "stateMutability": "view",
      "type": "function"
    },
    {
      "inputs": [
        {
          "internalType": "uint256",
          "name": "_id",
          "type": "uint256"
        }
      ],
      "name": "getSessionId",
      "outputs": [
        {
          "internalType": "string",
          "name": "",
          "type": "string"
        }
      ],
      "stateMutability": "view",
      "type": "function"
    },
    {
      "inputs": [
        {
          "internalType": "uint256",
          "name": "_id",
          "type": "uint256"
        }
      ],
      "name": "getSessionWithViewIncrement",
      "outputs": [
        {
          "components": [
            {
              "internalType": "string",
              "name": "sessionId",
              "type": "string"
            },
            {
              "internalType": "uint256[]",
              "name": "likes",
              "type": "uint256[]"
            },
            {
              "internalType": "uint256",
              "name": "views",
              "type": "uint256"
            }
          ],
          "internalType": "struct Superstream.Stream",
          "name": "",
          "type": "tuple"
        }
      ],
      "stateMutability": "nonpayable",
      "type": "function"
    },
    {
      "inputs": [],
      "name": "getStreamKey",
      "outputs": [
        {
          "internalType": "string",
          "name": "",
          "type": "string"
        }
      ],
      "stateMutability": "view",
      "type": "function"
    },
    {
      "inputs": [
        {
          "internalType": "string",
          "name": "",
          "type": "string"
        }
      ],
      "name": "isPublished",
      "outputs": [
        {
          "internalType": "bool",
          "name": "",
          "type": "bool"
        }
      ],
      "stateMutability": "view",
      "type": "function"
    },
    {
      "inputs": [
        {
          "internalType": "address",
          "name": "receiver",
          "type": "address"
        },
        {
          "internalType": "uint256",
          "name": "_amount",
          "type": "uint256"
        }
      ],
      "name": "tip",
      "outputs": [],
      "stateMutability": "payable",
      "type": "function"
    },
    {
      "inputs": [
        {
          "internalType": "string",
          "name": "",
          "type": "string"
        }
      ],
      "name": "usernameTaken",
      "outputs": [
        {
          "internalType": "bool",
          "name": "",
          "type": "bool"
        }
      ],
      "stateMutability": "view",
      "type": "function"
    }
  ],
  "bytecode": "0x60806040526001805534801561001457600080fd5b50336000806101000a81548173ffffffffffffffffffffffffffffffffffffffff021916908373ffffffffffffffffffffffffffffffffffffffff16021790555061285a806100646000396000f3fe6080604052600436106100a75760003560e01c80636e19cb18116100645780636e19cb18146101cc5780638b6fc45214610209578063b4cbb2b114610225578063b7ea4f0614610250578063c7ebd41c1461028d578063f26e818a146102ca576100a7565b806313be115e146100ac578063346582c6146100d5578063387b62b414610112578063390deb171461013b57806342bd3f8f146101645780635513802c1461018f575b600080fd5b3480156100b857600080fd5b506100d360048036038101906100ce9190611dfa565b610307565b005b3480156100e157600080fd5b506100fc60048036038101906100f79190611ee9565b6106c1565b6040516101099190612470565b60405180910390f35b34801561011e57600080fd5b5061013960048036038101906101349190611f12565b6107e2565b005b34801561014757600080fd5b50610162600480360381019061015d9190611db9565b6108d8565b005b34801561017057600080fd5b50610179610ab6565b604051610186919061244e565b60405180910390f35b34801561019b57600080fd5b506101b660048036038101906101b19190611db9565b6110a9565b6040516101c3919061244e565b60405180910390f35b3480156101d857600080fd5b506101f360048036038101906101ee9190611ee9565b611660565b60405161020091906123ec565b60405180910390f35b610223600480360381019061021e9190611d7d565b611708565b005b34801561023157600080fd5b5061023a611825565b60405161024791906123ec565b60405180910390f35b34801561025c57600080fd5b5061027760048036038101906102729190611ee9565b6118f4565b6040516102849190612470565b60405180910390f35b34801561029957600080fd5b506102b460048036038101906102af9190611db9565b611a41565b6040516102c191906123d1565b60405180910390f35b3480156102d657600080fd5b506102f160048036038101906102ec9190611db9565b611a77565b6040516102fe91906123d1565b60405180910390f35b600685604051610317919061238e565b908152602001604051809103902060009054906101000a900460ff1615610373576040517f08c379a000000000000000000000000000000000000000000000000000000000815260040161036a9061242e565b60405180910390fd5b61037b611aad565b858160200181905250828160800181905250848160400181905250838160600181905250604051806020016040528060008152508160c001819052506040518060400160405280601481526020017f44656661756c742053747265616d205469746c650000000000000000000000008152508160a001819052503381610120019073ffffffffffffffffffffffffffffffffffffffff16908173ffffffffffffffffffffffffffffffffffffffff16815250506001600687604051610440919061238e565b908152602001604051809103902060006101000a81548160ff02191690831515021790555080600487604051610476919061238e565b90815260200160405180910390206000820151816000015560208201518160010190805190602001906104aa929190611b16565b5060408201518160020190805190602001906104c7929190611b16565b5060608201518160030190805190602001906104e4929190611b16565b506080820151816004019080519060200190610501929190611b16565b5060a082015181600501908051906020019061051e929190611b16565b5060c082015181600601908051906020019061053b929190611b16565b5060e0820151816007019080519060200190610558929190611b9c565b50610100820151816008019080519060200190610576929190611b9c565b506101208201518160090160006101000a81548173ffffffffffffffffffffffffffffffffffffffff021916908373ffffffffffffffffffffffffffffffffffffffff16021790555090505085600560003373ffffffffffffffffffffffffffffffffffffffff1673ffffffffffffffffffffffffffffffffffffffff1681526020019081526020016000209080519060200190610615929190611b16565b5081600360003373ffffffffffffffffffffffffffffffffffffffff1673ffffffffffffffffffffffffffffffffffffffff1681526020019081526020016000209080519060200190610669929190611b16565b507f8aadb9577926806e9c90bd663642618385c3e3f6afa3276b3b632b60af99815b81604051610699919061244e565b60405180910390a1600160008154809291906106b4906126ba565b9190505550505050505050565b6106c9611bfc565b600260008381526020019081526020016000206040518060600160405290816000820180546106f790612657565b80601f016020809104026020016040519081016040528092919081815260200182805461072390612657565b80156107705780601f1061074557610100808354040283529160200191610770565b820191906000526020600020905b81548152906001019060200180831161075357829003601f168201915b50505050508152602001600182018054806020026020016040519081016040528092919081815260200182805480156107c857602002820191906000526020600020905b8154815260200190600101908083116107b4575b505050505081526020016002820154815250509050919050565b6107ea611bfc565b81816000018190525080600260008581526020019081526020016000206000820151816000019080519060200190610823929190611b16565b506020820151816001019080519060200190610840929190611c1d565b50604082015181600201559050506001600783604051610860919061238e565b908152602001604051809103902060006101000a81548160ff0219169083151502179055503373ffffffffffffffffffffffffffffffffffffffff167f36c6b813382449e17bb3195e869666ed514b79cc57d72d04ba60570c935fc7fd846040516108cb9190612492565b60405180910390a2505050565b6000600560003373ffffffffffffffffffffffffffffffffffffffff1673ffffffffffffffffffffffffffffffffffffffff168152602001908152602001600020805461092490612657565b80601f016020809104026020016040519081016040528092919081815260200182805461095090612657565b801561099d5780601f106109725761010080835404028352916020019161099d565b820191906000526020600020905b81548152906001019060200180831161098057829003601f168201915b505050505090506004816040516109b4919061238e565b9081526020016040518091039020600801829080600181540180825580915050600190039060005260206000200160009091909190915090805190602001906109fe929190611b16565b50600482604051610a0f919061238e565b908152602001604051809103902060070181908060018154018082558091505060019003906000526020600020016000909190919091509080519060200190610a59929190611b16565b5081604051610a68919061238e565b604051809103902081604051610a7e919061238e565b60405180910390207f60e966648a72c66e565c502cdeab4c996d5ba02bdffc84f2f4539eb413c5cb2860405160405180910390a35050565b610abe611aad565b6004600560003373ffffffffffffffffffffffffffffffffffffffff1673ffffffffffffffffffffffffffffffffffffffff168152602001908152602001600020604051610b0c91906123a5565b90815260200160405180910390206040518061014001604052908160008201548152602001600182018054610b4090612657565b80601f0160208091040260200160405190810160405280929190818152602001828054610b6c90612657565b8015610bb95780601f10610b8e57610100808354040283529160200191610bb9565b820191906000526020600020905b815481529060010190602001808311610b9c57829003601f168201915b50505050508152602001600282018054610bd290612657565b80601f0160208091040260200160405190810160405280929190818152602001828054610bfe90612657565b8015610c4b5780601f10610c2057610100808354040283529160200191610c4b565b820191906000526020600020905b815481529060010190602001808311610c2e57829003601f168201915b50505050508152602001600382018054610c6490612657565b80601f0160208091040260200160405190810160405280929190818152602001828054610c9090612657565b8015610cdd5780601f10610cb257610100808354040283529160200191610cdd565b820191906000526020600020905b815481529060010190602001808311610cc057829003601f168201915b50505050508152602001600482018054610cf690612657565b80601f0160208091040260200160405190810160405280929190818152602001828054610d2290612657565b8015610d6f5780601f10610d4457610100808354040283529160200191610d6f565b820191906000526020600020905b815481529060010190602001808311610d5257829003601f168201915b50505050508152602001600582018054610d8890612657565b80601f0160208091040260200160405190810160405280929190818152602001828054610db490612657565b8015610e015780601f10610dd657610100808354040283529160200191610e01565b820191906000526020600020905b815481529060010190602001808311610de457829003601f168201915b50505050508152602001600682018054610e1a90612657565b80601f0160208091040260200160405190810160405280929190818152602001828054610e4690612657565b8015610e935780601f10610e6857610100808354040283529160200191610e93565b820191906000526020600020905b815481529060010190602001808311610e7657829003601f168201915b5050505050815260200160078201805480602002602001604051908101604052809291908181526020016000905b82821015610f6d578382906000526020600020018054610ee090612657565b80601f0160208091040260200160405190810160405280929190818152602001828054610f0c90612657565b8015610f595780601f10610f2e57610100808354040283529160200191610f59565b820191906000526020600020905b815481529060010190602001808311610f3c57829003601f168201915b505050505081526020019060010190610ec1565b50505050815260200160088201805480602002602001604051908101604052809291908181526020016000905b82821015611046578382906000526020600020018054610fb990612657565b80601f0160208091040260200160405190810160405280929190818152602001828054610fe590612657565b80156110325780601f1061100757610100808354040283529160200191611032565b820191906000526020600020905b81548152906001019060200180831161101557829003601f168201915b505050505081526020019060010190610f9a565b5050505081526020016009820160009054906101000a900473ffffffffffffffffffffffffffffffffffffffff1673ffffffffffffffffffffffffffffffffffffffff1673ffffffffffffffffffffffffffffffffffffffff1681525050905090565b6110b1611aad565b6004826040516110c1919061238e565b908152602001604051809103902060405180610140016040529081600082015481526020016001820180546110f590612657565b80601f016020809104026020016040519081016040528092919081815260200182805461112190612657565b801561116e5780601f106111435761010080835404028352916020019161116e565b820191906000526020600020905b81548152906001019060200180831161115157829003601f168201915b5050505050815260200160028201805461118790612657565b80601f01602080910402602001604051908101604052809291908181526020018280546111b390612657565b80156112005780601f106111d557610100808354040283529160200191611200565b820191906000526020600020905b8154815290600101906020018083116111e357829003601f168201915b5050505050815260200160038201805461121990612657565b80601f016020809104026020016040519081016040528092919081815260200182805461124590612657565b80156112925780601f1061126757610100808354040283529160200191611292565b820191906000526020600020905b81548152906001019060200180831161127557829003601f168201915b505050505081526020016004820180546112ab90612657565b80601f01602080910402602001604051908101604052809291908181526020018280546112d790612657565b80156113245780601f106112f957610100808354040283529160200191611324565b820191906000526020600020905b81548152906001019060200180831161130757829003601f168201915b5050505050815260200160058201805461133d90612657565b80601f016020809104026020016040519081016040528092919081815260200182805461136990612657565b80156113b65780601f1061138b576101008083540402835291602001916113b6565b820191906000526020600020905b81548152906001019060200180831161139957829003601f168201915b505050505081526020016006820180546113cf90612657565b80601f01602080910402602001604051908101604052809291908181526020018280546113fb90612657565b80156114485780601f1061141d57610100808354040283529160200191611448565b820191906000526020600020905b81548152906001019060200180831161142b57829003601f168201915b5050505050815260200160078201805480602002602001604051908101604052809291908181526020016000905b8282101561152257838290600052602060002001805461149590612657565b80601f01602080910402602001604051908101604052809291908181526020018280546114c190612657565b801561150e5780601f106114e35761010080835404028352916020019161150e565b820191906000526020600020905b8154815290600101906020018083116114f157829003601f168201915b505050505081526020019060010190611476565b50505050815260200160088201805480602002602001604051908101604052809291908181526020016000905b828210156115fb57838290600052602060002001805461156e90612657565b80601f016020809104026020016040519081016040528092919081815260200182805461159a90612657565b80156115e75780601f106115bc576101008083540402835291602001916115e7565b820191906000526020600020905b8154815290600101906020018083116115ca57829003601f168201915b50505050508152602001906001019061154f565b5050505081526020016009820160009054906101000a900473ffffffffffffffffffffffffffffffffffffffff1673ffffffffffffffffffffffffffffffffffffffff1673ffffffffffffffffffffffffffffffffffffffff16815250509050919050565b606060026000838152602001908152602001600020600001805461168390612657565b80601f01602080910402602001604051908101604052809291908181526020018280546116af90612657565b80156116fc5780601f106116d1576101008083540402835291602001916116fc565b820191906000526020600020905b8154815290600101906020018083116116df57829003601f168201915b50505050509050919050565b60008273ffffffffffffffffffffffffffffffffffffffff168260405161172e906123bc565b60006040518083038185875af1925050503d806000811461176b576040519150601f19603f3d011682016040523d82523d6000602084013e611770565b606091505b5050905060011515811515146117bb576040517f08c379a00000000000000000000000000000000000000000000000000000000081526004016117b29061240e565b60405180910390fd5b8273ffffffffffffffffffffffffffffffffffffffff163373ffffffffffffffffffffffffffffffffffffffff167f91d9aec1bf873fb589194ec67c304522c89e9e1de41ed647cf135fb41226befc846040516118189190612492565b60405180910390a3505050565b6060600360003373ffffffffffffffffffffffffffffffffffffffff1673ffffffffffffffffffffffffffffffffffffffff168152602001908152602001600020805461187190612657565b80601f016020809104026020016040519081016040528092919081815260200182805461189d90612657565b80156118ea5780601f106118bf576101008083540402835291602001916118ea565b820191906000526020600020905b8154815290600101906020018083116118cd57829003601f168201915b5050505050905090565b6118fc611bfc565b600260008381526020019081526020016000206002016000815480929190611923906126ba565b91905055506002600083815260200190815260200160002060405180606001604052908160008201805461195690612657565b80601f016020809104026020016040519081016040528092919081815260200182805461198290612657565b80156119cf5780601f106119a4576101008083540402835291602001916119cf565b820191906000526020600020905b8154815290600101906020018083116119b257829003601f168201915b5050505050815260200160018201805480602002602001604051908101604052809291908181526020018280548015611a2757602002820191906000526020600020905b815481526020019060010190808311611a13575b505050505081526020016002820154815250509050919050565b6007818051602081018201805184825260208301602085012081835280955050505050506000915054906101000a900460ff1681565b6006818051602081018201805184825260208301602085012081835280955050505050506000915054906101000a900460ff1681565b604051806101400160405280600081526020016060815260200160608152602001606081526020016060815260200160608152602001606081526020016060815260200160608152602001600073ffffffffffffffffffffffffffffffffffffffff1681525090565b828054611b2290612657565b90600052602060002090601f016020900481019282611b445760008555611b8b565b82601f10611b5d57805160ff1916838001178555611b8b565b82800160010185558215611b8b579182015b82811115611b8a578251825591602001919060010190611b6f565b5b509050611b989190611c6a565b5090565b828054828255906000526020600020908101928215611beb579160200282015b82811115611bea578251829080519060200190611bda929190611b16565b5091602001919060010190611bbc565b5b509050611bf89190611c87565b5090565b60405180606001604052806060815260200160608152602001600081525090565b828054828255906000526020600020908101928215611c59579160200282015b82811115611c58578251825591602001919060010190611c3d565b5b509050611c669190611c6a565b5090565b5b80821115611c83576000816000905550600101611c6b565b5090565b5b80821115611ca75760008181611c9e9190611cab565b50600101611c88565b5090565b508054611cb790612657565b6000825580601f10611cc95750611ce8565b601f016020900490600052602060002090810190611ce79190611c6a565b5b50565b6000611cfe611cf9846124d2565b6124ad565b905082815260208101848484011115611d1657600080fd5b611d21848285612615565b509392505050565b600081359050611d38816127f6565b92915050565b600082601f830112611d4f57600080fd5b8135611d5f848260208601611ceb565b91505092915050565b600081359050611d778161280d565b92915050565b60008060408385031215611d9057600080fd5b6000611d9e85828601611d29565b9250506020611daf85828601611d68565b9150509250929050565b600060208284031215611dcb57600080fd5b600082013567ffffffffffffffff811115611de557600080fd5b611df184828501611d3e565b91505092915050565b600080600080600060a08688031215611e1257600080fd5b600086013567ffffffffffffffff811115611e2c57600080fd5b611e3888828901611d3e565b955050602086013567ffffffffffffffff811115611e5557600080fd5b611e6188828901611d3e565b945050604086013567ffffffffffffffff811115611e7e57600080fd5b611e8a88828901611d3e565b935050606086013567ffffffffffffffff811115611ea757600080fd5b611eb388828901611d3e565b925050608086013567ffffffffffffffff811115611ed057600080fd5b611edc88828901611d3e565b9150509295509295909350565b600060208284031215611efb57600080fd5b6000611f0984828501611d68565b91505092915050565b60008060408385031215611f2557600080fd5b6000611f3385828601611d68565b925050602083013567ffffffffffffffff811115611f5057600080fd5b611f5c85828601611d3e565b9150509250929050565b6000611f728383612083565b905092915050565b6000611f868383612370565b60208301905092915050565b611f9b816125cd565b82525050565b6000611fac82612538565b611fb68185612573565b935083602082028501611fc885612503565b8060005b858110156120045784840389528151611fe58582611f66565b9450611ff083612559565b925060208a01995050600181019050611fcc565b50829750879550505050505092915050565b600061202182612543565b61202b8185612584565b935061203683612513565b8060005b8381101561206757815161204e8882611f7a565b975061205983612566565b92505060018101905061203a565b5085935050505092915050565b61207d816125df565b82525050565b600061208e8261254e565b61209881856125a0565b93506120a8818560208601612624565b6120b181612790565b840191505092915050565b60006120c78261254e565b6120d181856125b1565b93506120e1818560208601612624565b6120ea81612790565b840191505092915050565b60006121008261254e565b61210a81856125c2565b935061211a818560208601612624565b80840191505092915050565b6000815461213381612657565b61213d81866125c2565b9450600182166000811461215857600181146121695761219c565b60ff1983168652818601935061219c565b61217285612523565b60005b8381101561219457815481890152600182019150602081019050612175565b838801955050505b50505092915050565b60006121b26012836125b1565b91506121bd826127a1565b602082019050919050565b60006121d5600083612595565b91506121e0826127ca565b600082019050919050565b60006121f8601a836125b1565b9150612203826127cd565b602082019050919050565b6000610140830160008301516122276000860182612370565b506020830151848203602086015261223f8282612083565b915050604083015184820360408601526122598282612083565b915050606083015184820360608601526122738282612083565b9150506080830151848203608086015261228d8282612083565b91505060a083015184820360a08601526122a78282612083565b91505060c083015184820360c08601526122c18282612083565b91505060e083015184820360e08601526122db8282611fa1565b9150506101008301518482036101008601526122f78282611fa1565b91505061012083015161230e610120860182611f92565b508091505092915050565b600060608301600083015184820360008601526123368282612083565b915050602083015184820360208601526123508282612016565b91505060408301516123656040860182612370565b508091505092915050565b6123798161260b565b82525050565b6123888161260b565b82525050565b600061239a82846120f5565b915081905092915050565b60006123b18284612126565b915081905092915050565b60006123c7826121c8565b9150819050919050565b60006020820190506123e66000830184612074565b92915050565b6000602082019050818103600083015261240681846120bc565b905092915050565b60006020820190508181036000830152612427816121a5565b9050919050565b60006020820190508181036000830152612447816121eb565b9050919050565b60006020820190508181036000830152612468818461220e565b905092915050565b6000602082019050818103600083015261248a8184612319565b905092915050565b60006020820190506124a7600083018461237f565b92915050565b60006124b76124c8565b90506124c38282612689565b919050565b6000604051905090565b600067ffffffffffffffff8211156124ed576124ec612761565b5b6124f682612790565b9050602081019050919050565b6000819050602082019050919050565b6000819050602082019050919050565b60008190508160005260206000209050919050565b600081519050919050565b600081519050919050565b600081519050919050565b6000602082019050919050565b6000602082019050919050565b600082825260208201905092915050565b600082825260208201905092915050565b600081905092915050565b600082825260208201905092915050565b600082825260208201905092915050565b600081905092915050565b60006125d8826125eb565b9050919050565b60008115159050919050565b600073ffffffffffffffffffffffffffffffffffffffff82169050919050565b6000819050919050565b82818337600083830152505050565b60005b83811015612642578082015181840152602081019050612627565b83811115612651576000848401525b50505050565b6000600282049050600182168061266f57607f821691505b6020821081141561268357612682612732565b5b50919050565b61269282612790565b810181811067ffffffffffffffff821117156126b1576126b0612761565b5b80604052505050565b60006126c58261260b565b91507fffffffffffffffffffffffffffffffffffffffffffffffffffffffffffffffff8214156126f8576126f7612703565b5b600182019050919050565b7f4e487b7100000000000000000000000000000000000000000000000000000000600052601160045260246000fd5b7f4e487b7100000000000000000000000000000000000000000000000000000000600052602260045260246000fd5b7f4e487b7100000000000000000000000000000000000000000000000000000000600052604160045260246000fd5b6000601f19601f8301169050919050565b7f4661696c656420746f2073656e64205469700000000000000000000000000000600082015250565b50565b7f557365726e616d6520697320416c72656164792054616b656e21000000000000600082015250565b6127ff816125cd565b811461280a57600080fd5b50565b6128168161260b565b811461282157600080fd5b5056fea26469706673582212205ca2bb83c3d5c3e7d77f8b11d59fdbf95c54d905e35931274dfaf2f46a72721264736f6c63430008040033",
  "linkReferences": {},
  "deployedLinkReferences": {}
}