{
  "_format": "hh-sol-artifact-1",
  "contractName": "Superstream",
  "sourceName": "contracts/Superstream.sol",
  "abi": [
    {
      "inputs": [],
      "stateMutability": "nonpayable",
      "type": "constructor"
    },
    {
      "anonymous": false,
      "inputs": [
        {
          "indexed": true,
          "internalType": "string",
          "name": "_from",
          "type": "string"
        },
        {
          "indexed": true,
          "internalType": "string",
          "name": "_to",
          "type": "string"
        }
      ],
      "name": "Followed",
      "type": "event"
    },
    {
      "anonymous": false,
      "inputs": [
        {
          "indexed": false,
          "internalType": "uint256",
          "name": "senderId",
          "type": "uint256"
        },
        {
          "indexed": true,
          "internalType": "uint256",
          "name": "streamId",
          "type": "uint256"
        }
      ],
      "name": "Liked",
      "type": "event"
    },
    {
      "anonymous": false,
      "inputs": [
        {
          "indexed": false,
          "internalType": "string",
          "name": "username",
          "type": "string"
        },
        {
          "indexed": false,
          "internalType": "uint256",
          "name": "id",
          "type": "uint256"
        },
        {
          "indexed": false,
          "internalType": "address",
          "name": "owner",
          "type": "address"
        }
      ],
      "name": "ProfileCreated",
      "type": "event"
    },
    {
      "anonymous": false,
      "inputs": [
        {
          "indexed": false,
          "internalType": "uint256",
          "name": "streamNftId",
          "type": "uint256"
        },
        {
          "indexed": true,
          "internalType": "address",
          "name": "creator",
          "type": "address"
        }
      ],
      "name": "StreamPublished",
      "type": "event"
    },
    {
      "anonymous": false,
      "inputs": [
        {
          "indexed": true,
          "internalType": "address",
          "name": "sender",
          "type": "address"
        },
        {
          "indexed": true,
          "internalType": "address",
          "name": "receiver",
          "type": "address"
        },
        {
          "indexed": false,
          "internalType": "uint256",
          "name": "amount",
          "type": "uint256"
        }
      ],
      "name": "Tipped",
      "type": "event"
    },
    {
      "inputs": [
        {
          "internalType": "uint256",
          "name": "_profileId",
          "type": "uint256"
        },
        {
          "internalType": "string",
          "name": "_username",
          "type": "string"
        },
        {
          "internalType": "string",
          "name": "_streamId",
          "type": "string"
        },
        {
          "internalType": "string",
          "name": "_streamKey",
          "type": "string"
        }
      ],
      "name": "addProfile",
      "outputs": [],
      "stateMutability": "nonpayable",
      "type": "function"
    },
    {
      "inputs": [
        {
          "internalType": "uint256",
          "name": "_streamNftId",
          "type": "uint256"
        },
        {
          "internalType": "string",
          "name": "_sessionId",
          "type": "string"
        }
      ],
      "name": "addStream",
      "outputs": [],
      "stateMutability": "nonpayable",
      "type": "function"
    },
    {
      "inputs": [
        {
          "internalType": "string",
          "name": "_from",
          "type": "string"
        },
        {
          "internalType": "string",
          "name": "_to",
          "type": "string"
        }
      ],
      "name": "follow",
      "outputs": [],
      "stateMutability": "nonpayable",
      "type": "function"
    },
    {
      "inputs": [
        {
          "internalType": "string",
          "name": "_username",
          "type": "string"
        }
      ],
      "name": "getFollowData",
      "outputs": [
        {
          "internalType": "uint256[]",
          "name": "",
          "type": "uint256[]"
        },
        {
          "internalType": "uint256[]",
          "name": "",
          "type": "uint256[]"
        }
      ],
      "stateMutability": "view",
      "type": "function"
    },
    {
      "inputs": [
        {
          "internalType": "string",
          "name": "_username",
          "type": "string"
        }
      ],
      "name": "getProfileId",
      "outputs": [
        {
          "internalType": "uint256",
          "name": "",
          "type": "uint256"
        }
      ],
      "stateMutability": "view",
      "type": "function"
    },
    {
      "inputs": [
        {
          "internalType": "uint256",
          "name": "_id",
          "type": "uint256"
        }
      ],
      "name": "getSessionData",
      "outputs": [
        {
          "components": [
            {
              "internalType": "string",
              "name": "sessionId",
              "type": "string"
            },
            {
              "internalType": "uint256[]",
              "name": "likes",
              "type": "uint256[]"
            },
            {
              "internalType": "uint256",
              "name": "views",
              "type": "uint256"
            }
          ],
          "internalType": "struct Superstream.Stream",
          "name": "",
          "type": "tuple"
        }
      ],
      "stateMutability": "view",
      "type": "function"
    },
    {
      "inputs": [
        {
          "internalType": "uint256",
          "name": "_id",
          "type": "uint256"
        }
      ],
      "name": "getSessionId",
      "outputs": [
        {
          "internalType": "string",
          "name": "",
          "type": "string"
        }
      ],
      "stateMutability": "view",
      "type": "function"
    },
    {
      "inputs": [
        {
          "internalType": "uint256",
          "name": "_id",
          "type": "uint256"
        }
      ],
      "name": "getSessionWithViewIncrement",
      "outputs": [
        {
          "components": [
            {
              "internalType": "string",
              "name": "sessionId",
              "type": "string"
            },
            {
              "internalType": "uint256[]",
              "name": "likes",
              "type": "uint256[]"
            },
            {
              "internalType": "uint256",
              "name": "views",
              "type": "uint256"
            }
          ],
          "internalType": "struct Superstream.Stream",
          "name": "",
          "type": "tuple"
        }
      ],
      "stateMutability": "nonpayable",
      "type": "function"
    },
    {
      "inputs": [
        {
          "internalType": "string",
          "name": "_username",
          "type": "string"
        }
      ],
      "name": "getStreamId",
      "outputs": [
        {
          "internalType": "string",
          "name": "",
          "type": "string"
        }
      ],
      "stateMutability": "view",
      "type": "function"
    },
    {
      "inputs": [
        {
          "internalType": "string",
          "name": "_username",
          "type": "string"
        }
      ],
      "name": "getStreamInfo",
      "outputs": [
        {
          "internalType": "string",
          "name": "",
          "type": "string"
        },
        {
          "internalType": "string",
          "name": "",
          "type": "string"
        }
      ],
      "stateMutability": "view",
      "type": "function"
    },
    {
      "inputs": [
        {
          "internalType": "string",
          "name": "_username",
          "type": "string"
        }
      ],
      "name": "getStreamKey",
      "outputs": [
        {
          "internalType": "string",
          "name": "",
          "type": "string"
        }
      ],
      "stateMutability": "view",
      "type": "function"
    },
    {
      "inputs": [
        {
          "internalType": "string",
          "name": "",
          "type": "string"
        }
      ],
      "name": "isPublished",
      "outputs": [
        {
          "internalType": "bool",
          "name": "",
          "type": "bool"
        }
      ],
      "stateMutability": "view",
      "type": "function"
    },
    {
      "inputs": [
        {
          "internalType": "uint256",
          "name": "_senderId",
          "type": "uint256"
        },
        {
          "internalType": "uint256",
          "name": "_sessionId",
          "type": "uint256"
        }
      ],
      "name": "like",
      "outputs": [
        {
          "internalType": "uint256",
          "name": "",
          "type": "uint256"
        }
      ],
      "stateMutability": "nonpayable",
      "type": "function"
    },
    {
      "inputs": [
        {
          "internalType": "address",
          "name": "receiver",
          "type": "address"
        },
        {
          "internalType": "uint256",
          "name": "_amount",
          "type": "uint256"
        }
      ],
      "name": "tip",
      "outputs": [],
      "stateMutability": "payable",
      "type": "function"
    },
    {
      "inputs": [
        {
          "internalType": "string",
          "name": "_username",
          "type": "string"
        },
        {
          "internalType": "string",
          "name": "_title",
          "type": "string"
        },
        {
          "internalType": "string",
          "name": "_thumbnail",
          "type": "string"
        }
      ],
      "name": "updateDefaultStreamInfo",
      "outputs": [
        {
          "internalType": "string",
          "name": "",
          "type": "string"
        },
        {
          "internalType": "string",
          "name": "",
          "type": "string"
        }
      ],
      "stateMutability": "nonpayable",
      "type": "function"
    },
    {
      "inputs": [
        {
          "internalType": "string",
          "name": "",
          "type": "string"
        }
      ],
      "name": "usernameTaken",
      "outputs": [
        {
          "internalType": "bool",
          "name": "",
          "type": "bool"
        }
      ],
      "stateMutability": "view",
      "type": "function"
    }
  ],
  "bytecode": "0x608060405234801561001057600080fd5b50336000806101000a81548173ffffffffffffffffffffffffffffffffffffffff021916908373ffffffffffffffffffffffffffffffffffffffff1602179055506122f6806100606000396000f3fe6080604052600436106100f35760003560e01c806387bc842b1161008a578063b7ea4f0611610059578063b7ea4f0614610379578063c59704df146103b6578063c7ebd41c146103f4578063f26e818a14610431576100f3565b806387bc842b146102ba5780638b6fc452146102e3578063a348f47d146102ff578063b23454581461033c576100f3565b806350b1c4b8116100c657806350b1c4b8146101d95780636a68a1fe146102025780636e19cb181461024057806374a2b2881461027d576100f3565b806308d5f8ea146100f85780630bdcd5af14610135578063346582c614610173578063387b62b4146101b0575b600080fd5b34801561010457600080fd5b5061011f600480360381019061011a9190611801565b61046e565b60405161012c9190611de0565b60405180910390f35b34801561014157600080fd5b5061015c600480360381019061015791906118ae565b6105d0565b60405161016a929190611e02565b60405180910390f35b34801561017f57600080fd5b5061019a60048036038101906101959190611945565b6107a5565b6040516101a79190611ef7565b60405180910390f35b3480156101bc57600080fd5b506101d760048036038101906101d2919061196e565b6108c6565b005b3480156101e557600080fd5b5061020060048036038101906101fb9190611842565b6109bc565b005b34801561020e57600080fd5b5061022960048036038101906102249190611801565b610af6565b604051610237929190611d8e565b60405180910390f35b34801561024c57600080fd5b5061026760048036038101906102629190611945565b610be8565b6040516102749190611de0565b60405180910390f35b34801561028957600080fd5b506102a4600480360381019061029f9190611801565b610c90565b6040516102b19190611f19565b60405180910390f35b3480156102c657600080fd5b506102e160048036038101906102dc91906119c2565b610d26565b005b6102fd60048036038101906102f891906117c5565b610fcd565b005b34801561030b57600080fd5b5061032660048036038101906103219190611801565b6110ea565b6040516103339190611de0565b60405180910390f35b34801561034857600080fd5b50610363600480360381019061035e9190611a6d565b611208565b6040516103709190611f19565b60405180910390f35b34801561038557600080fd5b506103a0600480360381019061039b9190611945565b6112a1565b6040516103ad9190611ef7565b60405180910390f35b3480156103c257600080fd5b506103dd60048036038101906103d89190611801565b6113ee565b6040516103eb929190611e02565b60405180910390f35b34801561040057600080fd5b5061041b60048036038101906104169190611801565b611554565b6040516104289190611dc5565b60405180910390f35b34801561043d57600080fd5b5061045860048036038101906104539190611801565b61158a565b6040516104659190611dc5565b60405180910390f35b60606002826040516104809190611d62565b908152602001604051809103902060080160009054906101000a900473ffffffffffffffffffffffffffffffffffffffff1673ffffffffffffffffffffffffffffffffffffffff163373ffffffffffffffffffffffffffffffffffffffff161461051f576040517f08c379a000000000000000000000000000000000000000000000000000000000815260040161051690611e97565b60405180910390fd5b60028260405161052f9190611d62565b9081526020016040518091039020600501805461054b906120a1565b80601f0160208091040260200160405190810160405280929190818152602001828054610577906120a1565b80156105c45780601f10610599576101008083540402835291602001916105c4565b820191906000526020600020905b8154815290600101906020018083116105a757829003601f168201915b50505050509050919050565b606080836002866040516105e49190611d62565b908152602001604051809103902060060190805190602001906106089291906115c0565b508260028660405161061a9190611d62565b9081526020016040518091039020600701908051906020019061063e9291906115c0565b5060028560405161064f9190611d62565b90815260200160405180910390206006016002866040516106709190611d62565b908152602001604051809103902060070181805461068d906120a1565b80601f01602080910402602001604051908101604052809291908181526020018280546106b9906120a1565b80156107065780601f106106db57610100808354040283529160200191610706565b820191906000526020600020905b8154815290600101906020018083116106e957829003601f168201915b50505050509150808054610719906120a1565b80601f0160208091040260200160405190810160405280929190818152602001828054610745906120a1565b80156107925780601f1061076757610100808354040283529160200191610792565b820191906000526020600020905b81548152906001019060200180831161077557829003601f168201915b5050505050905091509150935093915050565b6107ad611646565b600160008381526020019081526020016000206040518060600160405290816000820180546107db906120a1565b80601f0160208091040260200160405190810160405280929190818152602001828054610807906120a1565b80156108545780601f1061082957610100808354040283529160200191610854565b820191906000526020600020905b81548152906001019060200180831161083757829003601f168201915b50505050508152602001600182018054806020026020016040519081016040528092919081815260200182805480156108ac57602002820191906000526020600020905b815481526020019060010190808311610898575b505050505081526020016002820154815250509050919050565b6108ce611646565b818160000181905250806001600085815260200190815260200160002060008201518160000190805190602001906109079291906115c0565b506020820151816001019080519060200190610924929190611667565b506040820151816002015590505060016004836040516109449190611d62565b908152602001604051809103902060006101000a81548160ff0219169083151502179055503373ffffffffffffffffffffffffffffffffffffffff167f36c6b813382449e17bb3195e869666ed514b79cc57d72d04ba60570c935fc7fd846040516109af9190611f19565b60405180910390a2505050565b60006002836040516109ce9190611d62565b908152602001604051809103902060000154905060006002836040516109f49190611d62565b9081526020016040518091039020600001549050600284604051610a189190611d62565b9081526020016040518091039020600101819080600181540180825580915050600190039060005260206000200160009091909190915055600283604051610a609190611d62565b908152602001604051809103902060020182908060018154018082558091505060019003906000526020600020016000909190919091505582604051610aa69190611d62565b604051809103902084604051610abc9190611d62565b60405180910390207f60e966648a72c66e565c502cdeab4c996d5ba02bdffc84f2f4539eb413c5cb2860405160405180910390a350505050565b606080600283604051610b099190611d62565b9081526020016040518091039020600101600284604051610b2a9190611d62565b908152602001604051809103902060020181805480602002602001604051908101604052809291908181526020018280548015610b8657602002820191906000526020600020905b815481526020019060010190808311610b72575b5050505050915080805480602002602001604051908101604052809291908181526020018280548015610bd857602002820191906000526020600020905b815481526020019060010190808311610bc4575b5050505050905091509150915091565b6060600160008381526020019081526020016000206000018054610c0b906120a1565b80601f0160208091040260200160405190810160405280929190818152602001828054610c37906120a1565b8015610c845780601f10610c5957610100808354040283529160200191610c84565b820191906000526020600020905b815481529060010190602001808311610c6757829003601f168201915b50505050509050919050565b6000600382604051610ca29190611d62565b908152602001604051809103902060009054906101000a900460ff16610cfd576040517f08c379a0000000000000000000000000000000000000000000000000000000008152600401610cf490611e77565b60405180910390fd5b600282604051610d0d9190611d62565b9081526020016040518091039020600001549050919050565b600383604051610d369190611d62565b908152602001604051809103902060009054906101000a900460ff1615610d92576040517f08c379a0000000000000000000000000000000000000000000000000000000008152600401610d8990611ed7565b60405180910390fd5b610d9a6116b4565b84816000018181525050838160600181905250828160800181905250818160a00181905250604051806020016040528060008152508160e001819052506040518060400160405280601481526020017f44656661756c742053747265616d205469746c650000000000000000000000008152508160c0018190525080600285604051610e269190611d62565b9081526020016040518091039020600082015181600001556020820151816001019080519060200190610e5a929190611667565b506040820151816002019080519060200190610e77929190611667565b506060820151816003019080519060200190610e949291906115c0565b506080820151816004019080519060200190610eb19291906115c0565b5060a0820151816005019080519060200190610ece9291906115c0565b5060c0820151816006019080519060200190610eeb9291906115c0565b5060e0820151816007019080519060200190610f089291906115c0565b506101008201518160080160006101000a81548173ffffffffffffffffffffffffffffffffffffffff021916908373ffffffffffffffffffffffffffffffffffffffff1602179055509050506001600385604051610f669190611d62565b908152602001604051809103902060006101000a81548160ff0219169083151502179055507f52dc06e2500835c56e717f4064bf4362705aacbd79cbcef43e37f19c75efcc26848633604051610fbe93929190611e39565b60405180910390a15050505050565b60008273ffffffffffffffffffffffffffffffffffffffff1682604051610ff390611d79565b60006040518083038185875af1925050503d8060008114611030576040519150601f19603f3d011682016040523d82523d6000602084013e611035565b606091505b505090506001151581151514611080576040517f08c379a000000000000000000000000000000000000000000000000000000000815260040161107790611eb7565b60405180910390fd5b8273ffffffffffffffffffffffffffffffffffffffff163373ffffffffffffffffffffffffffffffffffffffff167f91d9aec1bf873fb589194ec67c304522c89e9e1de41ed647cf135fb41226befc846040516110dd9190611f19565b60405180910390a3505050565b60606003826040516110fc9190611d62565b908152602001604051809103902060009054906101000a900460ff16611157576040517f08c379a000000000000000000000000000000000000000000000000000000000815260040161114e90611e77565b60405180910390fd5b6002826040516111679190611d62565b90815260200160405180910390206004018054611183906120a1565b80601f01602080910402602001604051908101604052809291908181526020018280546111af906120a1565b80156111fc5780601f106111d1576101008083540402835291602001916111fc565b820191906000526020600020905b8154815290600101906020018083116111df57829003601f168201915b50505050509050919050565b600060016000838152602001908152602001600020600101839080600181540180825580915050600190039060005260206000200160009091909190915055817fbfbb80b99cdab6417ba36d9f1f214f7fd61d4ec66609c20e8eead0d1d0c3bdfc846040516112779190611f19565b60405180910390a26001600083815260200190815260200160002060010180549050905092915050565b6112a9611646565b6001600083815260200190815260200160002060020160008154809291906112d090612104565b919050555060016000838152602001908152602001600020604051806060016040529081600082018054611303906120a1565b80601f016020809104026020016040519081016040528092919081815260200182805461132f906120a1565b801561137c5780601f106113515761010080835404028352916020019161137c565b820191906000526020600020905b81548152906001019060200180831161135f57829003601f168201915b50505050508152602001600182018054806020026020016040519081016040528092919081815260200182805480156113d457602002820191906000526020600020905b8154815260200190600101908083116113c0575b505050505081526020016002820154815250509050919050565b6060806002836040516114019190611d62565b90815260200160405180910390206007016002846040516114229190611d62565b908152602001604051809103902060060181805461143f906120a1565b80601f016020809104026020016040519081016040528092919081815260200182805461146b906120a1565b80156114b85780601f1061148d576101008083540402835291602001916114b8565b820191906000526020600020905b81548152906001019060200180831161149b57829003601f168201915b505050505091508080546114cb906120a1565b80601f01602080910402602001604051908101604052809291908181526020018280546114f7906120a1565b80156115445780601f1061151957610100808354040283529160200191611544565b820191906000526020600020905b81548152906001019060200180831161152757829003601f168201915b5050505050905091509150915091565b6004818051602081018201805184825260208301602085012081835280955050505050506000915054906101000a900460ff1681565b6003818051602081018201805184825260208301602085012081835280955050505050506000915054906101000a900460ff1681565b8280546115cc906120a1565b90600052602060002090601f0160209004810192826115ee5760008555611635565b82601f1061160757805160ff1916838001178555611635565b82800160010185558215611635579182015b82811115611634578251825591602001919060010190611619565b5b5090506116429190611716565b5090565b60405180606001604052806060815260200160608152602001600081525090565b8280548282559060005260206000209081019282156116a3579160200282015b828111156116a2578251825591602001919060010190611687565b5b5090506116b09190611716565b5090565b6040518061012001604052806000815260200160608152602001606081526020016060815260200160608152602001606081526020016060815260200160608152602001600073ffffffffffffffffffffffffffffffffffffffff1681525090565b5b8082111561172f576000816000905550600101611717565b5090565b600061174661174184611f59565b611f34565b90508281526020810184848401111561175e57600080fd5b61176984828561205f565b509392505050565b60008135905061178081612292565b92915050565b600082601f83011261179757600080fd5b81356117a7848260208601611733565b91505092915050565b6000813590506117bf816122a9565b92915050565b600080604083850312156117d857600080fd5b60006117e685828601611771565b92505060206117f7858286016117b0565b9150509250929050565b60006020828403121561181357600080fd5b600082013567ffffffffffffffff81111561182d57600080fd5b61183984828501611786565b91505092915050565b6000806040838503121561185557600080fd5b600083013567ffffffffffffffff81111561186f57600080fd5b61187b85828601611786565b925050602083013567ffffffffffffffff81111561189857600080fd5b6118a485828601611786565b9150509250929050565b6000806000606084860312156118c357600080fd5b600084013567ffffffffffffffff8111156118dd57600080fd5b6118e986828701611786565b935050602084013567ffffffffffffffff81111561190657600080fd5b61191286828701611786565b925050604084013567ffffffffffffffff81111561192f57600080fd5b61193b86828701611786565b9150509250925092565b60006020828403121561195757600080fd5b6000611965848285016117b0565b91505092915050565b6000806040838503121561198157600080fd5b600061198f858286016117b0565b925050602083013567ffffffffffffffff8111156119ac57600080fd5b6119b885828601611786565b9150509250929050565b600080600080608085870312156119d857600080fd5b60006119e6878288016117b0565b945050602085013567ffffffffffffffff811115611a0357600080fd5b611a0f87828801611786565b935050604085013567ffffffffffffffff811115611a2c57600080fd5b611a3887828801611786565b925050606085013567ffffffffffffffff811115611a5557600080fd5b611a6187828801611786565b91505092959194509250565b60008060408385031215611a8057600080fd5b6000611a8e858286016117b0565b9250506020611a9f858286016117b0565b9150509250929050565b6000611ab58383611d44565b60208301905092915050565b611aca81612017565b82525050565b6000611adb82611f9a565b611ae58185611fbd565b9350611af083611f8a565b8060005b83811015611b21578151611b088882611aa9565b9750611b1383611fb0565b925050600181019050611af4565b5085935050505092915050565b6000611b3982611f9a565b611b438185611fce565b9350611b4e83611f8a565b8060005b83811015611b7f578151611b668882611aa9565b9750611b7183611fb0565b925050600181019050611b52565b5085935050505092915050565b611b9581612029565b82525050565b6000611ba682611fa5565b611bb08185611fea565b9350611bc081856020860161206e565b611bc9816121da565b840191505092915050565b6000611bdf82611fa5565b611be98185611ffb565b9350611bf981856020860161206e565b611c02816121da565b840191505092915050565b6000611c1882611fa5565b611c22818561200c565b9350611c3281856020860161206e565b80840191505092915050565b6000611c4b601783611ffb565b9150611c56826121eb565b602082019050919050565b6000611c6e600c83611ffb565b9150611c7982612214565b602082019050919050565b6000611c91601283611ffb565b9150611c9c8261223d565b602082019050919050565b6000611cb4600083611fdf565b9150611cbf82612266565b600082019050919050565b6000611cd7601a83611ffb565b9150611ce282612269565b602082019050919050565b60006060830160008301518482036000860152611d0a8282611b9b565b91505060208301518482036020860152611d248282611ad0565b9150506040830151611d396040860182611d44565b508091505092915050565b611d4d81612055565b82525050565b611d5c81612055565b82525050565b6000611d6e8284611c0d565b915081905092915050565b6000611d8482611ca7565b9150819050919050565b60006040820190508181036000830152611da88185611b2e565b90508181036020830152611dbc8184611b2e565b90509392505050565b6000602082019050611dda6000830184611b8c565b92915050565b60006020820190508181036000830152611dfa8184611bd4565b905092915050565b60006040820190508181036000830152611e1c8185611bd4565b90508181036020830152611e308184611bd4565b90509392505050565b60006060820190508181036000830152611e538186611bd4565b9050611e626020830185611d53565b611e6f6040830184611ac1565b949350505050565b60006020820190508181036000830152611e9081611c3e565b9050919050565b60006020820190508181036000830152611eb081611c61565b9050919050565b60006020820190508181036000830152611ed081611c84565b9050919050565b60006020820190508181036000830152611ef081611cca565b9050919050565b60006020820190508181036000830152611f118184611ced565b905092915050565b6000602082019050611f2e6000830184611d53565b92915050565b6000611f3e611f4f565b9050611f4a82826120d3565b919050565b6000604051905090565b600067ffffffffffffffff821115611f7457611f736121ab565b5b611f7d826121da565b9050602081019050919050565b6000819050602082019050919050565b600081519050919050565b600081519050919050565b6000602082019050919050565b600082825260208201905092915050565b600082825260208201905092915050565b600081905092915050565b600082825260208201905092915050565b600082825260208201905092915050565b600081905092915050565b600061202282612035565b9050919050565b60008115159050919050565b600073ffffffffffffffffffffffffffffffffffffffff82169050919050565b6000819050919050565b82818337600083830152505050565b60005b8381101561208c578082015181840152602081019050612071565b8381111561209b576000848401525b50505050565b600060028204905060018216806120b957607f821691505b602082108114156120cd576120cc61217c565b5b50919050565b6120dc826121da565b810181811067ffffffffffffffff821117156120fb576120fa6121ab565b5b80604052505050565b600061210f82612055565b91507fffffffffffffffffffffffffffffffffffffffffffffffffffffffffffffffff8214156121425761214161214d565b5b600182019050919050565b7f4e487b7100000000000000000000000000000000000000000000000000000000600052601160045260246000fd5b7f4e487b7100000000000000000000000000000000000000000000000000000000600052602260045260246000fd5b7f4e487b7100000000000000000000000000000000000000000000000000000000600052604160045260246000fd5b6000601f19601f8301169050919050565b7f557365726e616d6520646f6573206e6f74206578697374000000000000000000600082015250565b7f556e617574686f72697a65640000000000000000000000000000000000000000600082015250565b7f4661696c656420746f2073656e64205469700000000000000000000000000000600082015250565b50565b7f557365726e616d6520697320416c72656164792054616b656e21000000000000600082015250565b61229b81612017565b81146122a657600080fd5b50565b6122b281612055565b81146122bd57600080fd5b5056fea264697066735822122040e12639ac756484dad20fba0cf06e8cddfc2e9069744d2de102b71cb55cefaf64736f6c63430008040033",
  "linkReferences": {},
  "deployedLinkReferences": {}
}