{
  "_format": "hh-sol-artifact-1",
  "contractName": "Superstream",
  "sourceName": "contracts/Superstream.sol",
  "abi": [
    {
      "inputs": [],
      "stateMutability": "nonpayable",
      "type": "constructor"
    },
    {
      "anonymous": false,
      "inputs": [
        {
          "indexed": true,
          "internalType": "string",
          "name": "_from",
          "type": "string"
        },
        {
          "indexed": true,
          "internalType": "string",
          "name": "_to",
          "type": "string"
        }
      ],
      "name": "Followed",
      "type": "event"
    },
    {
      "anonymous": false,
      "inputs": [
        {
          "indexed": false,
          "internalType": "uint256",
          "name": "senderId",
          "type": "uint256"
        },
        {
          "indexed": true,
          "internalType": "uint256",
          "name": "streamId",
          "type": "uint256"
        }
      ],
      "name": "Liked",
      "type": "event"
    },
    {
      "anonymous": false,
      "inputs": [
        {
          "indexed": false,
          "internalType": "string",
          "name": "username",
          "type": "string"
        },
        {
          "indexed": false,
          "internalType": "uint256",
          "name": "id",
          "type": "uint256"
        },
        {
          "indexed": false,
          "internalType": "address",
          "name": "owner",
          "type": "address"
        }
      ],
      "name": "ProfileCreated",
      "type": "event"
    },
    {
      "anonymous": false,
      "inputs": [
        {
          "indexed": false,
          "internalType": "uint256",
          "name": "streamNftId",
          "type": "uint256"
        },
        {
          "indexed": true,
          "internalType": "address",
          "name": "creator",
          "type": "address"
        }
      ],
      "name": "StreamPublished",
      "type": "event"
    },
    {
      "anonymous": false,
      "inputs": [
        {
          "indexed": true,
          "internalType": "address",
          "name": "sender",
          "type": "address"
        },
        {
          "indexed": true,
          "internalType": "address",
          "name": "receiver",
          "type": "address"
        },
        {
          "indexed": false,
          "internalType": "uint256",
          "name": "amount",
          "type": "uint256"
        }
      ],
      "name": "Tipped",
      "type": "event"
    },
    {
      "inputs": [
        {
          "internalType": "uint256",
          "name": "_profileId",
          "type": "uint256"
        },
        {
          "internalType": "string",
          "name": "_username",
          "type": "string"
        },
        {
          "internalType": "string",
          "name": "_streamId",
          "type": "string"
        },
        {
          "internalType": "string",
          "name": "_streamKey",
          "type": "string"
        }
      ],
      "name": "addProfile",
      "outputs": [],
      "stateMutability": "nonpayable",
      "type": "function"
    },
    {
      "inputs": [
        {
          "internalType": "uint256",
          "name": "_streamNftId",
          "type": "uint256"
        },
        {
          "internalType": "string",
          "name": "_sessionId",
          "type": "string"
        }
      ],
      "name": "addStream",
      "outputs": [],
      "stateMutability": "nonpayable",
      "type": "function"
    },
    {
      "inputs": [
        {
          "internalType": "string",
          "name": "_from",
          "type": "string"
        },
        {
          "internalType": "string",
          "name": "_to",
          "type": "string"
        }
      ],
      "name": "follow",
      "outputs": [],
      "stateMutability": "nonpayable",
      "type": "function"
    },
    {
      "inputs": [
        {
          "internalType": "string",
          "name": "_username",
          "type": "string"
        }
      ],
      "name": "getFollowData",
      "outputs": [
        {
          "internalType": "uint256[]",
          "name": "",
          "type": "uint256[]"
        },
        {
          "internalType": "uint256[]",
          "name": "",
          "type": "uint256[]"
        }
      ],
      "stateMutability": "view",
      "type": "function"
    },
    {
      "inputs": [
        {
          "internalType": "string",
          "name": "_username",
          "type": "string"
        }
      ],
      "name": "getProfileId",
      "outputs": [
        {
          "internalType": "uint256",
          "name": "",
          "type": "uint256"
        }
      ],
      "stateMutability": "view",
      "type": "function"
    },
    {
      "inputs": [
        {
          "internalType": "uint256",
          "name": "_id",
          "type": "uint256"
        }
      ],
      "name": "getSessionData",
      "outputs": [
        {
          "components": [
            {
              "internalType": "string",
              "name": "sessionId",
              "type": "string"
            },
            {
              "internalType": "uint256[]",
              "name": "likes",
              "type": "uint256[]"
            },
            {
              "internalType": "uint256",
              "name": "views",
              "type": "uint256"
            }
          ],
          "internalType": "struct Superstream.Stream",
          "name": "",
          "type": "tuple"
        }
      ],
      "stateMutability": "view",
      "type": "function"
    },
    {
      "inputs": [
        {
          "internalType": "uint256",
          "name": "_id",
          "type": "uint256"
        }
      ],
      "name": "getSessionId",
      "outputs": [
        {
          "internalType": "string",
          "name": "",
          "type": "string"
        }
      ],
      "stateMutability": "view",
      "type": "function"
    },
    {
      "inputs": [
        {
          "internalType": "uint256",
          "name": "_id",
          "type": "uint256"
        }
      ],
      "name": "getSessionWithViewIncrement",
      "outputs": [
        {
          "components": [
            {
              "internalType": "string",
              "name": "sessionId",
              "type": "string"
            },
            {
              "internalType": "uint256[]",
              "name": "likes",
              "type": "uint256[]"
            },
            {
              "internalType": "uint256",
              "name": "views",
              "type": "uint256"
            }
          ],
          "internalType": "struct Superstream.Stream",
          "name": "",
          "type": "tuple"
        }
      ],
      "stateMutability": "nonpayable",
      "type": "function"
    },
    {
      "inputs": [
        {
          "internalType": "string",
          "name": "_username",
          "type": "string"
        }
      ],
      "name": "getStreamId",
      "outputs": [
        {
          "internalType": "string",
          "name": "",
          "type": "string"
        }
      ],
      "stateMutability": "view",
      "type": "function"
    },
    {
      "inputs": [
        {
          "internalType": "string",
          "name": "_username",
          "type": "string"
        }
      ],
      "name": "getStreamInfo",
      "outputs": [
        {
          "internalType": "string",
          "name": "",
          "type": "string"
        },
        {
          "internalType": "string",
          "name": "",
          "type": "string"
        }
      ],
      "stateMutability": "view",
      "type": "function"
    },
    {
      "inputs": [
        {
          "internalType": "string",
          "name": "_username",
          "type": "string"
        }
      ],
      "name": "getStreamKey",
      "outputs": [
        {
          "internalType": "string",
          "name": "",
          "type": "string"
        }
      ],
      "stateMutability": "view",
      "type": "function"
    },
    {
      "inputs": [
        {
          "internalType": "string",
          "name": "",
          "type": "string"
        }
      ],
      "name": "isPublished",
      "outputs": [
        {
          "internalType": "bool",
          "name": "",
          "type": "bool"
        }
      ],
      "stateMutability": "view",
      "type": "function"
    },
    {
      "inputs": [
        {
          "internalType": "uint256",
          "name": "_senderId",
          "type": "uint256"
        },
        {
          "internalType": "uint256",
          "name": "_sessionId",
          "type": "uint256"
        }
      ],
      "name": "like",
      "outputs": [
        {
          "internalType": "uint256",
          "name": "",
          "type": "uint256"
        }
      ],
      "stateMutability": "nonpayable",
      "type": "function"
    },
    {
      "inputs": [
        {
          "internalType": "address",
          "name": "receiver",
          "type": "address"
        },
        {
          "internalType": "uint256",
          "name": "_amount",
          "type": "uint256"
        }
      ],
      "name": "tip",
      "outputs": [],
      "stateMutability": "payable",
      "type": "function"
    },
    {
      "inputs": [
        {
          "internalType": "string",
          "name": "_username",
          "type": "string"
        },
        {
          "internalType": "string",
          "name": "_title",
          "type": "string"
        },
        {
          "internalType": "string",
          "name": "_thumbnail",
          "type": "string"
        }
      ],
      "name": "updateDefaultStreamInfo",
      "outputs": [
        {
          "internalType": "string",
          "name": "",
          "type": "string"
        },
        {
          "internalType": "string",
          "name": "",
          "type": "string"
        }
      ],
      "stateMutability": "nonpayable",
      "type": "function"
    },
    {
      "inputs": [
        {
          "internalType": "string",
          "name": "",
          "type": "string"
        }
      ],
      "name": "usernameTaken",
      "outputs": [
        {
          "internalType": "bool",
          "name": "",
          "type": "bool"
        }
      ],
      "stateMutability": "view",
      "type": "function"
    }
  ],
  "bytecode": "0x608060405234801561001057600080fd5b50336000806101000a81548173ffffffffffffffffffffffffffffffffffffffff021916908373ffffffffffffffffffffffffffffffffffffffff1602179055506123a4806100606000396000f3fe6080604052600436106100f35760003560e01c806387bc842b1161008a578063b7ea4f0611610059578063b7ea4f0614610379578063c59704df146103b6578063c7ebd41c146103f4578063f26e818a14610431576100f3565b806387bc842b146102ba5780638b6fc452146102e3578063a348f47d146102ff578063b23454581461033c576100f3565b806350b1c4b8116100c657806350b1c4b8146101d95780636a68a1fe146102025780636e19cb181461024057806374a2b2881461027d576100f3565b806308d5f8ea146100f85780630bdcd5af14610135578063346582c614610173578063387b62b4146101b0575b600080fd5b34801561010457600080fd5b5061011f600480360381019061011a9190611843565b61046e565b60405161012c9190611e45565b60405180910390f35b34801561014157600080fd5b5061015c600480360381019061015791906118f0565b6105d0565b60405161016a929190611e67565b60405180910390f35b34801561017f57600080fd5b5061019a60048036038101906101959190611987565b6107a5565b6040516101a79190611f7c565b60405180910390f35b3480156101bc57600080fd5b506101d760048036038101906101d291906119b0565b6108c6565b005b3480156101e557600080fd5b5061020060048036038101906101fb9190611884565b6109bc565b005b34801561020e57600080fd5b5061022960048036038101906102249190611843565b610af6565b604051610237929190611df3565b60405180910390f35b34801561024c57600080fd5b5061026760048036038101906102629190611987565b610be8565b6040516102749190611e45565b60405180910390f35b34801561028957600080fd5b506102a4600480360381019061029f9190611843565b610c90565b6040516102b19190611f9e565b60405180910390f35b3480156102c657600080fd5b506102e160048036038101906102dc9190611a04565b610d26565b005b6102fd60048036038101906102f89190611807565b610fcd565b005b34801561030b57600080fd5b5061032660048036038101906103219190611843565b61112c565b6040516103339190611e45565b60405180910390f35b34801561034857600080fd5b50610363600480360381019061035e9190611aaf565b61124a565b6040516103709190611f9e565b60405180910390f35b34801561038557600080fd5b506103a0600480360381019061039b9190611987565b6112e3565b6040516103ad9190611f7c565b60405180910390f35b3480156103c257600080fd5b506103dd60048036038101906103d89190611843565b611430565b6040516103eb929190611e67565b60405180910390f35b34801561040057600080fd5b5061041b60048036038101906104169190611843565b611596565b6040516104289190611e2a565b60405180910390f35b34801561043d57600080fd5b5061045860048036038101906104539190611843565b6115cc565b6040516104659190611e2a565b60405180910390f35b60606002826040516104809190611dc7565b908152602001604051809103902060080160009054906101000a900473ffffffffffffffffffffffffffffffffffffffff1673ffffffffffffffffffffffffffffffffffffffff163373ffffffffffffffffffffffffffffffffffffffff161461051f576040517f08c379a000000000000000000000000000000000000000000000000000000000815260040161051690611efc565b60405180910390fd5b60028260405161052f9190611dc7565b9081526020016040518091039020600501805461054b90612126565b80601f016020809104026020016040519081016040528092919081815260200182805461057790612126565b80156105c45780601f10610599576101008083540402835291602001916105c4565b820191906000526020600020905b8154815290600101906020018083116105a757829003601f168201915b50505050509050919050565b606080836002866040516105e49190611dc7565b90815260200160405180910390206006019080519060200190610608929190611602565b508260028660405161061a9190611dc7565b9081526020016040518091039020600701908051906020019061063e929190611602565b5060028560405161064f9190611dc7565b90815260200160405180910390206006016002866040516106709190611dc7565b908152602001604051809103902060070181805461068d90612126565b80601f01602080910402602001604051908101604052809291908181526020018280546106b990612126565b80156107065780601f106106db57610100808354040283529160200191610706565b820191906000526020600020905b8154815290600101906020018083116106e957829003601f168201915b5050505050915080805461071990612126565b80601f016020809104026020016040519081016040528092919081815260200182805461074590612126565b80156107925780601f1061076757610100808354040283529160200191610792565b820191906000526020600020905b81548152906001019060200180831161077557829003601f168201915b5050505050905091509150935093915050565b6107ad611688565b600160008381526020019081526020016000206040518060600160405290816000820180546107db90612126565b80601f016020809104026020016040519081016040528092919081815260200182805461080790612126565b80156108545780601f1061082957610100808354040283529160200191610854565b820191906000526020600020905b81548152906001019060200180831161083757829003601f168201915b50505050508152602001600182018054806020026020016040519081016040528092919081815260200182805480156108ac57602002820191906000526020600020905b815481526020019060010190808311610898575b505050505081526020016002820154815250509050919050565b6108ce611688565b81816000018190525080600160008581526020019081526020016000206000820151816000019080519060200190610907929190611602565b5060208201518160010190805190602001906109249291906116a9565b506040820151816002015590505060016004836040516109449190611dc7565b908152602001604051809103902060006101000a81548160ff0219169083151502179055503373ffffffffffffffffffffffffffffffffffffffff167f36c6b813382449e17bb3195e869666ed514b79cc57d72d04ba60570c935fc7fd846040516109af9190611f9e565b60405180910390a2505050565b60006002836040516109ce9190611dc7565b908152602001604051809103902060000154905060006002836040516109f49190611dc7565b9081526020016040518091039020600001549050600284604051610a189190611dc7565b9081526020016040518091039020600101819080600181540180825580915050600190039060005260206000200160009091909190915055600283604051610a609190611dc7565b908152602001604051809103902060020182908060018154018082558091505060019003906000526020600020016000909190919091505582604051610aa69190611dc7565b604051809103902084604051610abc9190611dc7565b60405180910390207f60e966648a72c66e565c502cdeab4c996d5ba02bdffc84f2f4539eb413c5cb2860405160405180910390a350505050565b606080600283604051610b099190611dc7565b9081526020016040518091039020600101600284604051610b2a9190611dc7565b908152602001604051809103902060020181805480602002602001604051908101604052809291908181526020018280548015610b8657602002820191906000526020600020905b815481526020019060010190808311610b72575b5050505050915080805480602002602001604051908101604052809291908181526020018280548015610bd857602002820191906000526020600020905b815481526020019060010190808311610bc4575b5050505050905091509150915091565b6060600160008381526020019081526020016000206000018054610c0b90612126565b80601f0160208091040260200160405190810160405280929190818152602001828054610c3790612126565b8015610c845780601f10610c5957610100808354040283529160200191610c84565b820191906000526020600020905b815481529060010190602001808311610c6757829003601f168201915b50505050509050919050565b6000600382604051610ca29190611dc7565b908152602001604051809103902060009054906101000a900460ff16610cfd576040517f08c379a0000000000000000000000000000000000000000000000000000000008152600401610cf490611edc565b60405180910390fd5b600282604051610d0d9190611dc7565b9081526020016040518091039020600001549050919050565b600383604051610d369190611dc7565b908152602001604051809103902060009054906101000a900460ff1615610d92576040517f08c379a0000000000000000000000000000000000000000000000000000000008152600401610d8990611f5c565b60405180910390fd5b610d9a6116f6565b84816000018181525050838160600181905250828160800181905250818160a00181905250604051806020016040528060008152508160e001819052506040518060400160405280601481526020017f44656661756c742053747265616d205469746c650000000000000000000000008152508160c0018190525080600285604051610e269190611dc7565b9081526020016040518091039020600082015181600001556020820151816001019080519060200190610e5a9291906116a9565b506040820151816002019080519060200190610e779291906116a9565b506060820151816003019080519060200190610e94929190611602565b506080820151816004019080519060200190610eb1929190611602565b5060a0820151816005019080519060200190610ece929190611602565b5060c0820151816006019080519060200190610eeb929190611602565b5060e0820151816007019080519060200190610f08929190611602565b506101008201518160080160006101000a81548173ffffffffffffffffffffffffffffffffffffffff021916908373ffffffffffffffffffffffffffffffffffffffff1602179055509050506001600385604051610f669190611dc7565b908152602001604051809103902060006101000a81548160ff0219169083151502179055507f52dc06e2500835c56e717f4064bf4362705aacbd79cbcef43e37f19c75efcc26848633604051610fbe93929190611e9e565b60405180910390a15050505050565b80341461100f576040517f08c379a000000000000000000000000000000000000000000000000000000000815260040161100690611f1c565b60405180910390fd5b60008273ffffffffffffffffffffffffffffffffffffffff168260405161103590611dde565b60006040518083038185875af1925050503d8060008114611072576040519150601f19603f3d011682016040523d82523d6000602084013e611077565b606091505b5050905060011515811515146110c2576040517f08c379a00000000000000000000000000000000000000000000000000000000081526004016110b990611f3c565b60405180910390fd5b8273ffffffffffffffffffffffffffffffffffffffff163373ffffffffffffffffffffffffffffffffffffffff167f91d9aec1bf873fb589194ec67c304522c89e9e1de41ed647cf135fb41226befc8460405161111f9190611f9e565b60405180910390a3505050565b606060038260405161113e9190611dc7565b908152602001604051809103902060009054906101000a900460ff16611199576040517f08c379a000000000000000000000000000000000000000000000000000000000815260040161119090611edc565b60405180910390fd5b6002826040516111a99190611dc7565b908152602001604051809103902060040180546111c590612126565b80601f01602080910402602001604051908101604052809291908181526020018280546111f190612126565b801561123e5780601f106112135761010080835404028352916020019161123e565b820191906000526020600020905b81548152906001019060200180831161122157829003601f168201915b50505050509050919050565b600060016000838152602001908152602001600020600101839080600181540180825580915050600190039060005260206000200160009091909190915055817fbfbb80b99cdab6417ba36d9f1f214f7fd61d4ec66609c20e8eead0d1d0c3bdfc846040516112b99190611f9e565b60405180910390a26001600083815260200190815260200160002060010180549050905092915050565b6112eb611688565b60016000838152602001908152602001600020600201600081548092919061131290612189565b91905055506001600083815260200190815260200160002060405180606001604052908160008201805461134590612126565b80601f016020809104026020016040519081016040528092919081815260200182805461137190612126565b80156113be5780601f10611393576101008083540402835291602001916113be565b820191906000526020600020905b8154815290600101906020018083116113a157829003601f168201915b505050505081526020016001820180548060200260200160405190810160405280929190818152602001828054801561141657602002820191906000526020600020905b815481526020019060010190808311611402575b505050505081526020016002820154815250509050919050565b6060806002836040516114439190611dc7565b90815260200160405180910390206007016002846040516114649190611dc7565b908152602001604051809103902060060181805461148190612126565b80601f01602080910402602001604051908101604052809291908181526020018280546114ad90612126565b80156114fa5780601f106114cf576101008083540402835291602001916114fa565b820191906000526020600020905b8154815290600101906020018083116114dd57829003601f168201915b5050505050915080805461150d90612126565b80601f016020809104026020016040519081016040528092919081815260200182805461153990612126565b80156115865780601f1061155b57610100808354040283529160200191611586565b820191906000526020600020905b81548152906001019060200180831161156957829003601f168201915b5050505050905091509150915091565b6004818051602081018201805184825260208301602085012081835280955050505050506000915054906101000a900460ff1681565b6003818051602081018201805184825260208301602085012081835280955050505050506000915054906101000a900460ff1681565b82805461160e90612126565b90600052602060002090601f0160209004810192826116305760008555611677565b82601f1061164957805160ff1916838001178555611677565b82800160010185558215611677579182015b8281111561167657825182559160200191906001019061165b565b5b5090506116849190611758565b5090565b60405180606001604052806060815260200160608152602001600081525090565b8280548282559060005260206000209081019282156116e5579160200282015b828111156116e45782518255916020019190600101906116c9565b5b5090506116f29190611758565b5090565b6040518061012001604052806000815260200160608152602001606081526020016060815260200160608152602001606081526020016060815260200160608152602001600073ffffffffffffffffffffffffffffffffffffffff1681525090565b5b80821115611771576000816000905550600101611759565b5090565b600061178861178384611fde565b611fb9565b9050828152602081018484840111156117a057600080fd5b6117ab8482856120e4565b509392505050565b6000813590506117c281612340565b92915050565b600082601f8301126117d957600080fd5b81356117e9848260208601611775565b91505092915050565b60008135905061180181612357565b92915050565b6000806040838503121561181a57600080fd5b6000611828858286016117b3565b9250506020611839858286016117f2565b9150509250929050565b60006020828403121561185557600080fd5b600082013567ffffffffffffffff81111561186f57600080fd5b61187b848285016117c8565b91505092915050565b6000806040838503121561189757600080fd5b600083013567ffffffffffffffff8111156118b157600080fd5b6118bd858286016117c8565b925050602083013567ffffffffffffffff8111156118da57600080fd5b6118e6858286016117c8565b9150509250929050565b60008060006060848603121561190557600080fd5b600084013567ffffffffffffffff81111561191f57600080fd5b61192b868287016117c8565b935050602084013567ffffffffffffffff81111561194857600080fd5b611954868287016117c8565b925050604084013567ffffffffffffffff81111561197157600080fd5b61197d868287016117c8565b9150509250925092565b60006020828403121561199957600080fd5b60006119a7848285016117f2565b91505092915050565b600080604083850312156119c357600080fd5b60006119d1858286016117f2565b925050602083013567ffffffffffffffff8111156119ee57600080fd5b6119fa858286016117c8565b9150509250929050565b60008060008060808587031215611a1a57600080fd5b6000611a28878288016117f2565b945050602085013567ffffffffffffffff811115611a4557600080fd5b611a51878288016117c8565b935050604085013567ffffffffffffffff811115611a6e57600080fd5b611a7a878288016117c8565b925050606085013567ffffffffffffffff811115611a9757600080fd5b611aa3878288016117c8565b91505092959194509250565b60008060408385031215611ac257600080fd5b6000611ad0858286016117f2565b9250506020611ae1858286016117f2565b9150509250929050565b6000611af78383611da9565b60208301905092915050565b611b0c8161209c565b82525050565b6000611b1d8261201f565b611b278185612042565b9350611b328361200f565b8060005b83811015611b63578151611b4a8882611aeb565b9750611b5583612035565b925050600181019050611b36565b5085935050505092915050565b6000611b7b8261201f565b611b858185612053565b9350611b908361200f565b8060005b83811015611bc1578151611ba88882611aeb565b9750611bb383612035565b925050600181019050611b94565b5085935050505092915050565b611bd7816120ae565b82525050565b6000611be88261202a565b611bf2818561206f565b9350611c028185602086016120f3565b611c0b8161225f565b840191505092915050565b6000611c218261202a565b611c2b8185612080565b9350611c3b8185602086016120f3565b611c448161225f565b840191505092915050565b6000611c5a8261202a565b611c648185612091565b9350611c748185602086016120f3565b80840191505092915050565b6000611c8d601783612080565b9150611c9882612270565b602082019050919050565b6000611cb0600c83612080565b9150611cbb82612299565b602082019050919050565b6000611cd3601283612080565b9150611cde826122c2565b602082019050919050565b6000611cf6601283612080565b9150611d01826122eb565b602082019050919050565b6000611d19600083612064565b9150611d2482612314565b600082019050919050565b6000611d3c601a83612080565b9150611d4782612317565b602082019050919050565b60006060830160008301518482036000860152611d6f8282611bdd565b91505060208301518482036020860152611d898282611b12565b9150506040830151611d9e6040860182611da9565b508091505092915050565b611db2816120da565b82525050565b611dc1816120da565b82525050565b6000611dd38284611c4f565b915081905092915050565b6000611de982611d0c565b9150819050919050565b60006040820190508181036000830152611e0d8185611b70565b90508181036020830152611e218184611b70565b90509392505050565b6000602082019050611e3f6000830184611bce565b92915050565b60006020820190508181036000830152611e5f8184611c16565b905092915050565b60006040820190508181036000830152611e818185611c16565b90508181036020830152611e958184611c16565b90509392505050565b60006060820190508181036000830152611eb88186611c16565b9050611ec76020830185611db8565b611ed46040830184611b03565b949350505050565b60006020820190508181036000830152611ef581611c80565b9050919050565b60006020820190508181036000830152611f1581611ca3565b9050919050565b60006020820190508181036000830152611f3581611cc6565b9050919050565b60006020820190508181036000830152611f5581611ce9565b9050919050565b60006020820190508181036000830152611f7581611d2f565b9050919050565b60006020820190508181036000830152611f968184611d52565b905092915050565b6000602082019050611fb36000830184611db8565b92915050565b6000611fc3611fd4565b9050611fcf8282612158565b919050565b6000604051905090565b600067ffffffffffffffff821115611ff957611ff8612230565b5b6120028261225f565b9050602081019050919050565b6000819050602082019050919050565b600081519050919050565b600081519050919050565b6000602082019050919050565b600082825260208201905092915050565b600082825260208201905092915050565b600081905092915050565b600082825260208201905092915050565b600082825260208201905092915050565b600081905092915050565b60006120a7826120ba565b9050919050565b60008115159050919050565b600073ffffffffffffffffffffffffffffffffffffffff82169050919050565b6000819050919050565b82818337600083830152505050565b60005b838110156121115780820151818401526020810190506120f6565b83811115612120576000848401525b50505050565b6000600282049050600182168061213e57607f821691505b6020821081141561215257612151612201565b5b50919050565b6121618261225f565b810181811067ffffffffffffffff821117156121805761217f612230565b5b80604052505050565b6000612194826120da565b91507fffffffffffffffffffffffffffffffffffffffffffffffffffffffffffffffff8214156121c7576121c66121d2565b5b600182019050919050565b7f4e487b7100000000000000000000000000000000000000000000000000000000600052601160045260246000fd5b7f4e487b7100000000000000000000000000000000000000000000000000000000600052602260045260246000fd5b7f4e487b7100000000000000000000000000000000000000000000000000000000600052604160045260246000fd5b6000601f19601f8301169050919050565b7f557365726e616d6520646f6573206e6f74206578697374000000000000000000600082015250565b7f556e617574686f72697a65640000000000000000000000000000000000000000600082015250565b7f496e73756666696369656e742046756e64730000000000000000000000000000600082015250565b7f4661696c656420746f2073656e64205469700000000000000000000000000000600082015250565b50565b7f557365726e616d6520697320416c72656164792054616b656e21000000000000600082015250565b6123498161209c565b811461235457600080fd5b50565b612360816120da565b811461236b57600080fd5b5056fea264697066735822122074d96b412152c56da853ad10f4ba98c5708976f97d5b364de65d9a5cdee6e40864736f6c63430008040033",
  "linkReferences": {},
  "deployedLinkReferences": {}
}